{
  "_format": "hh-sol-artifact-1",
  "contractName": "ParadoxLog",
  "sourceName": "contracts/ParadoxLog.sol",
  "abi": [
    {
      "inputs": [],
      "stateMutability": "nonpayable",
      "type": "constructor"
    },
    {
      "inputs": [
        {
          "internalType": "address",
          "name": "owner",
          "type": "address"
        }
      ],
      "name": "OwnableInvalidOwner",
      "type": "error"
    },
    {
      "inputs": [
        {
          "internalType": "address",
          "name": "account",
          "type": "address"
        }
      ],
      "name": "OwnableUnauthorizedAccount",
      "type": "error"
    },
    {
      "anonymous": false,
      "inputs": [
        {
          "indexed": true,
          "internalType": "uint256",
          "name": "id",
          "type": "uint256"
        },
        {
          "indexed": true,
          "internalType": "address",
          "name": "sender",
          "type": "address"
        },
        {
          "indexed": false,
          "internalType": "string",
          "name": "room",
          "type": "string"
        },
        {
          "indexed": false,
          "internalType": "string",
          "name": "text",
          "type": "string"
        },
        {
          "indexed": false,
          "internalType": "uint256",
          "name": "ts",
          "type": "uint256"
        }
      ],
      "name": "MessageLogged",
      "type": "event"
    },
    {
      "anonymous": false,
      "inputs": [
        {
          "indexed": true,
          "internalType": "address",
          "name": "previousOwner",
          "type": "address"
        },
        {
          "indexed": true,
          "internalType": "address",
          "name": "newOwner",
          "type": "address"
        }
      ],
      "name": "OwnershipTransferred",
      "type": "event"
    },
    {
      "inputs": [
        {
          "internalType": "address[]",
          "name": "senders",
          "type": "address[]"
        },
        {
          "internalType": "string[]",
          "name": "rooms",
          "type": "string[]"
        },
        {
          "internalType": "string[]",
          "name": "texts",
          "type": "string[]"
        },
        {
          "internalType": "uint256[]",
          "name": "timestamps",
          "type": "uint256[]"
        }
      ],
      "name": "archiveBatch",
      "outputs": [],
      "stateMutability": "nonpayable",
      "type": "function"
    },
    {
      "inputs": [
        {
          "internalType": "string",
          "name": "room",
          "type": "string"
        },
        {
          "internalType": "string",
          "name": "text",
          "type": "string"
        }
      ],
      "name": "log",
      "outputs": [],
      "stateMutability": "nonpayable",
      "type": "function"
    },
    {
      "inputs": [],
      "name": "owner",
      "outputs": [
        {
          "internalType": "address",
          "name": "",
          "type": "address"
        }
      ],
      "stateMutability": "view",
      "type": "function"
    },
    {
      "inputs": [],
      "name": "renounceOwnership",
      "outputs": [],
      "stateMutability": "nonpayable",
      "type": "function"
    },
    {
      "inputs": [],
      "name": "totalLogs",
      "outputs": [
        {
          "internalType": "uint256",
          "name": "",
          "type": "uint256"
        }
      ],
      "stateMutability": "view",
      "type": "function"
    },
    {
      "inputs": [
        {
          "internalType": "address",
          "name": "newOwner",
          "type": "address"
        }
      ],
      "name": "transferOwnership",
      "outputs": [],
      "stateMutability": "nonpayable",
      "type": "function"
    }
  ],
  "bytecode": "0x60808060405234610078573315610063575f8054336001600160a01b03198216811783556040519290916001600160a01b0316907f8be0079c531659141344cd1fd0a4f28419497f9722a3daafe3b4186f6b6457e09080a361062a908161007d8239f35b631e4fbdf760e01b81525f6004820152602490fd5b5f80fdfe60406080815260049081361015610014575f80fd5b5f3560e01c8063420caabc146102d25780634b5c42771461018c578063715018a6146101355780638da5cb5b1461010e578063e4ce0662146100f05763f2fde38b1461005e575f80fd5b346100ec5760203660031901126100ec576001600160a01b038235818116939192908490036100ec5761008f6105c9565b83156100d65750505f54826bffffffffffffffffffffffff60a01b8216175f55167f8be0079c531659141344cd1fd0a4f28419497f9722a3daafe3b4186f6b6457e05f80a3005b905f6024925191631e4fbdf760e01b8352820152fd5b5f80fd5b50346100ec575f3660031901126100ec576020906001549051908152f35b50346100ec575f3660031901126100ec575f5490516001600160a01b039091168152602090f35b346100ec575f3660031901126100ec5761014d6105c9565b5f80546001600160a01b0319811682556001600160a01b03167f8be0079c531659141344cd1fd0a4f28419497f9722a3daafe3b4186f6b6457e08280a3005b5090346100ec57816003193601126100ec5767ffffffffffffffff9181358381116100ec576101be90369084016104c4565b9290936024359081116100ec576101d890369083016104c4565b91821561029f576101f4831161026957841561023957506102347fe72df7480f4a91b34f169010dbb2d79a89147dc1a8b4af32c0be1e16556259f593949560015495610223876104f2565b60015551938493339842938661059a565b0390a3005b606490602085519162461bcd60e51b8352820152600a602482015269656d70747920726f6f6d60b01b6044820152fd5b606490602085519162461bcd60e51b8352820152601060248201526f6d65737361676520746f6f206c6f6e6760801b6044820152fd5b606490602085519162461bcd60e51b8352820152600d60248201526c656d707479206d65737361676560981b6044820152fd5b50346100ec5760803660031901126100ec5767ffffffffffffffff9082358281116100ec576103049036908501610493565b926024358181116100ec5761031c9036908701610493565b916044358181116100ec576103349036908901610493565b9290916064359081116100ec5761034e9036908a01610493565b9690986103596105c9565b8589148061048a575b80610481575b1561044d5760c8891161041757505f5b88811061038157005b600190815491610390836104f2565b905561039d818b8a610514565b356001600160a01b038116908190036100ec576001927fe72df7480f4a91b34f169010dbb2d79a89147dc1a8b4af32c0be1e16556259f588888f61040e908f6104018f6103f98b8f8180946103f192610538565b999098610538565b939094610514565b35918b519586958661059a565b0390a301610378565b6020606492519162461bcd60e51b835282015260116024820152700dac2f04064606040e0cae440c4c2e8c6d607b1b6044820152fd5b6020606492519162461bcd60e51b8352820152600f60248201526e0d8cadccee8d040dad2e6dac2e8c6d608b1b6044820152fd5b50878914610368565b50848914610362565b9181601f840112156100ec5782359167ffffffffffffffff83116100ec576020808501948460051b0101116100ec57565b9181601f840112156100ec5782359167ffffffffffffffff83116100ec57602083818601950101116100ec57565b5f1981146105005760010190565b634e487b7160e01b5f52601160045260245ffd5b91908110156105245760051b0190565b634e487b7160e01b5f52603260045260245ffd5b91908110156105245760051b81013590601e19813603018212156100ec57019081359167ffffffffffffffff83116100ec5760200182360381136100ec579190565b908060209392818452848401375f828201840152601f01601f1916010190565b9594936105b6604094926105c49460608a5260608a019161057a565b91878303602089015261057a565b930152565b5f546001600160a01b031633036105dc57565b60405163118cdaa760e01b8152336004820152602490fdfea264697066735822122054cc2920c22980509779e024783c2397d45ada2b1e4f5b6191da91f78539b22064736f6c63430008180033",
  "linkReferences": {},
  "deployedLinkReferences": {}
}